S00C00006D61696E2E7372656373
S11300000C942A000C9434000C9434000C943400A6
S11300100C9434000C9434000C9434000C9434008C
S11300200C9434000C9434000C9434000C9434007C
S11300300C9434000C9434000C9434000C9434006C
S11300400C9434000C9434000C9434000C9434005C
S11300500C94340011241FBECFE5D8E0DEBFCDBF21
S11300600E9436000C9468000C9400008FEF8ABB49
S113007017BA1BBA61E070E080E090E0EFE3FCE9BE
S11300803197F1F700C00000B09BF8CFEFE3FCE933
S11300903197F1F700C000003BB3AC014150510966
S11300A0FB0102C0EE0FFF1F4A95E2F72E2F2095A9
S11300B023232BBB4BB39B01082E01C0220F0A94B0
S11300C0EAF7242B2BBB019688309105B9F6D4CFDF
S10700D0F894FFCFCE
S9030000FC
