S00C00006D61696E2E7372656373
S11300000C942A000C9434000C9434000C943400A6
S11300100C9434000C9434000C9434000C9434008C
S11300200C9434000C9434000C9434000C9434007C
S11300300C9434000C9434000C9434000C9434006C
S11300400C9434000C9434000C9434000C9434005C
S11300500C94340011241FBECFE5D8E0DEBFCDBF21
S11300600E9436000C945B000C9400008FEF8ABB56
S113007017BA1BBA61E070E020E030E04BB3CB016B
S1130080022E01C0880F0A94EAF7942F982B9BBB89
S11300904FEF59E6E8E141505040E040E1F700C03D
S11300A000009BB3809589238BBB2F5F3F4F283083
S10D00B0310521F7E1CFF894FFCFEA
S9030000FC
