:100000000C942A000C9434000C9434000C943400AA
:100010000C9434000C9434000C9434000C94340090
:100020000C9434000C9434000C9434000C94340080
:100030000C9434000C9434000C9434000C94340070
:100040000C9434000C9434000C9434000C94340060
:100050000C94340011241FBECFE5D8E0DEBFCDBF25
:100060000E9436000C9447000C9400008FEF8ABB6E
:1000700017BA1BBA81E08BBB2FEF39E698E121500C
:1000800030409040E1F700C000008F5FF4CFF8945B
:02009000FFCFA0
:00000001FF
