S00C00006D61696E2E7372656373
S11300000C942A000C943F000C943F000C943F0085
S11300100C943F000C943F000C943F000C943F0060
S11300200C943F000C943F000C943F000C943F0050
S11300300C943F000C943F000C943F000C943F0040
S11300400C943F000C943F000C943F000C943F0030
S11300500C943F0011241FBECFE5D8E0DEBFCDBF16
S113006010E0A0E6B0E0E0EEF0E002C005900D92F2
S1130070AA36B107D9F70E9441000C946E000C9483
S11300800000CF93DF93CDB7DEB72A970FB6F8946D
S1130090DEBF0FBECDBF8AE0E0E6F0E0DE011196E0
S11300A001900D928A95E1F78FEF8ABB80E0E1E041
S11300B0F0E0EC0FFD1FE80FF11D90819BBB2FEFCB
S11300C039E698E1215030409040E1F700C000004B
S11300D0893011F08F5FEBCF80E0E9CFF894FFCF48
S10D00E03F065B4F666D7D477F6F9E
S9030000FC
