:100000000C942A000C943F000C943F000C943F0089
:100010000C943F000C943F000C943F000C943F0064
:100020000C943F000C943F000C943F000C943F0054
:100030000C943F000C943F000C943F000C943F0044
:100040000C943F000C943F000C943F000C943F0034
:100050000C943F0011241FBECFE5D8E0DEBFCDBF1A
:1000600010E0A0E6B0E0EEEFF0E002C005900D92E7
:10007000AA36B107D9F70E9441000C947D000C9478
:100080000000CF93DF93CDB7DEB72A970FB6F89471
:10009000DEBF0FBECDBF8AE0E0E6F0E0DE011196E4
:1000A00001900D928A95E1F78FEF8ABBB89AB99AC1
:1000B000C09AC19A9E01255F3F4FDE011196FE0155
:1000C0003196C09881918BBB8FE19EE40197F1F747
:1000D00000C00000C09AC1988C918BBB8FE19EE458
:1000E0000197F1F700C00000C19A2E173F0749F7AA
:0E00F00011962A173B0719F7E0CFF894FFCFBF
:0A00FE003F065B4F666D7D477F6F84
:00000001FF
